:020000040800F2
:1000000050100020E5060008E5030008E70300089B
:10001000EB030008EF030008F303000800000000F2
:10002000000000000000000000000000F7030008CE
:10003000F903000800000000FB030008FD030008AE
:10004000FF060008FF060008FF060008FF0600087C
:10005000FF060008FF060008FF060008FF0600086C
:10006000FF060008FF060008FF060008FF0600085C
:10007000FF060008FF060008FF060008FF0600084C
:10008000FF060008FF060008FF060008FF0600083C
:10009000FF060008FF060008FF060008FF0600082C
:1000A000FF060008FF060008FF060008FF0600081C
:1000B000FF06000813230008FF060008FF060008DB
:1000C000FF060008FF060008FF060008FF060008FC
:1000D000FF060008FF060008FF060008FF060008EC
:1000E000FF060008FF060008FF060008FF060008DC
:1000F000FF060008FF060008FF060008FF060008CC
:10010000FF060008FF060008FF060008FF060008BB
:10011000FF060008FF060008FF060008FF060008AB
:10012000FF060008FF060008FF060008FF0600089B
:1001300000000000000000000000000000000000BF
:1001400000000000000000000000000000000000AF
:10015000FF060008FF060008FF0600080000000078
:10016000000000000000000000000000000000008F
:10017000000000000000000000000000000000007F
:10018000000000000000000000000000000000006F
:10019000000000000000000000000000000000005F
:1001A000000000000000000000000000000000004F
:1001B000000000000000000000000000000000003F
:1001C000000000000000000000000000000000002F
:1001D000000000000000000000000000000000001F
:1001E000000000000000000000000000000000000F
:1001F00000000000000000000000000000000000FF
:1002000000000000000000000000000000000000EE
:1002100000000000000000000000000000000000DE
:10022000DFF810D002F074FB004800471903000803
:10023000AFF30080501000202DE9F04F8DB05CA08E
:1002400002F006FC5B49086902F014F983465A493A
:1002500002F0D2F8824602F012F904460D465549E2
:10026000C86802F007F98346534902F0C5F8824690
:1002700002F005F906460F464E49886802F0FAF882
:1002800083464D4902F0B8F8824602F0F8F88046FD
:1002900089464849486802F0EDF88346464902F02D
:1002A000ABF8824602F0EBF8CDE90A014149086853
:1002B00002F0E0F88346404902F09EF8824602F0E0
:1002C000DEF8CDE90289CDE90467CDE90645CDE93F
:1002D0000801DDE90A01CDE900013848DDE908231C
:1002E00002F0B6FB36A002F0B3FB0DB0BDE8F08F14
:1002F00008B50121082000F0B8FD40F60440ADF833
:10030000000003208DF8020010208DF803006946DC
:10031000334800F0C7FA08BD00F062F94FF4E1304D
:1003200002F00CF801F0C6FF224800F026FDFFF7AE
:1003300083FFFFF7DDFF01F0E3FE37E004212848EB
:1003400000F05DFBC82000F08CF94FF48061244878
:1003500000F055FBC82000F084F94FF400612048FC
:1003600000F04DFBC82000F07CF90122042110466A
:1003700001F08AFF04211A4800F043FBC82000F076
:1003800070F94FF48061164800F03BFBC82000F084
:1003900068F94FF40061124800F033FBC82000F008
:1003A00060F901220421002001F06EFFC6E7000081
:1003B0000A0000003C000020002474492C3300088F
:1003C000414952333246313033204750494F20495A
:1003D0004F204F757420547365742E0A000000007E
:1003E000000C0140704700BFFEE700BFFEE700BF02
:1003F000FEE700BFFEE77047704770477047000098
:100400000CB50020019000906C48006840F48030EA
:100410006A49086000BF6948006800F40030009035
:100420000198401C0190009818B90198B0F5706FC0
:10043000F1D16248006800F4003010B10120009052
:1004400001E0002000900098012843D15C4800683A
:1004500040F010005A4908600846006820F0030088
:1004600008600846006840F0020008605348406891
:10047000524948600846406848600846406840F471
:10048000806048600846406820F47C104860084658
:10049000406840F4E81048600846006840F080700A
:1004A000086000BF4548006800F000700028F9D0DF
:1004B0004248406820F003004049486008464068D0
:1004C00040F00200486000BF3C48406800F00C006B
:1004D0000828F9D10CBD10B5FFF792FF10BD10B57B
:1004E0003648006840F0010034490860084640681A
:1004F000344908403149486008460068324908409C
:100500002E4908600846006820F4802008600846EC
:10051000406820F4FE0048604FF41F008860FFF739
:10052000DAFF4FF000602949086010BD10B50021C6
:1005300000200022214B5B6803F00C0121B104294B
:1005400006D0082928D107E0214B224C236027E060
:100550001F4B204C236023E0184B5B6803F47010A2
:10056000164B5B6803F48032022303EB904022B900
:10057000194B4343174C23600DE0104B5B6803F4A9
:10058000003323B1144B4343124C236003E0104B60
:100590004343104C236003E00D4B0E4C236000BF1F
:1005A00000BF064B5B68C3F303130C4CE15C094BC3
:1005B0001B68CB40074C236010BD000000100240B8
:1005C000002002400000FFF8FFFFF6FE08ED00E00B
:1005D00000127A000000002000093D000400002005
:1005E00000B585B0684600F0C8FB6FF0040000F06D
:1005F000DAF837490198B0FBF1F03649087008463F
:10060000007800EB4001C1EBC0104FF6FF7101EA2A
:10061000C0003149088005B000BD01462D4A12785E
:100620004A434FF0E0235A6100229A611A46126948
:1006300042F001021A6100BF4FF0E022106900F0A1
:1006400001021AB100F48032002AF5D04FF0E02206
:10065000126922F001024FF0E0231A6100229A6130
:10066000704701461C4A12884A434FF0E0235A6102
:1006700000229A611A46126942F001021A6100BF13
:100680004FF0E022106900F001021AB100F480324C
:10069000002AF5D04FF0E022126922F001024FF05B
:1006A000E0231A6100229A61704730B5044609E0E0
:1006B000002502E06420FFF7D4FF2846691C8DB2B4
:1006C0000A28F7DB201EA4F101018CB2F0D130BD65
:1006D00000127A001400002016000020084880470D
:1006E000084800470648804706480047FEE7FEE7FF
:1006F000FEE7FEE7FEE7FEE7FEE7FEE7FEE7FEE7D2
:10070000DF0400082102000831490143314A116029
:10071000704770B5002100230F22C47804B32D4C1C
:10072000246804F4E064C4F5E064210AC1F1040320
:10073000CA40447804FA03F1847814402143090143
:10074000254C0678A155047804F01F050124AC401F
:1007500005786D11AD0005F1E025C5F8004109E00F
:10076000047804F01F050124AC401C4D0678761176
:1007700045F8264070BD1A4A0A400243154B1B1F1C
:100780001A60704739B1134A121D12680243114BA7
:100790001B1D1A6006E00F4A121D126882430D4BA2
:1007A0001B1D1A607047042808D14FF0E021096929
:1007B00041F004014FF0E022116107E04FF0E02129
:1007C000096921F004014FF0E02211617047000037
:1007D0000000FA050CED00E000E400E080E100E03C
:1007E00080FFFF1F10B50446D648844208D101217E
:1007F000042000F054FB0021042000F050FB46E0F0
:10080000D148844208D10121082000F048FB002192
:10081000082000F044FB3AE0CC48844208D1012192
:10082000102000F03CFB0021102000F038FB2EE0EF
:10083000C748844208D10121202000F030FB00216C
:10084000202000F02CFB22E0C248844208D1012184
:10085000402000F024FB0021402000F020FB16E0A7
:10086000BD48844208D10121802000F018FB0021FE
:10087000802000F014FB0AE0B848844207D101212F
:10088000801500F00CFB0021A01500F008FB10BD46
:1008900010B50121084600F002FB0021012000F004
:1008A000FEFA10BD2DE9F041024600250026002089
:1008B00000230024002791F803C00CF00F0591F8E5
:1008C00003C00CF0100CBCF1000F03D091F802C073
:1008D0004CEA050591F800C0BCF1000F31D0146856
:1008E00000202BE04FF0010C0CFA00F3B1F800C02F
:1008F0000CEA03069E4220D183004FF00F0C0CFA45
:1009000003F7BC4305FA03FC4CEA040491F803C066
:10091000BCF1280F06D14FF0010C0CFA00FCC2F814
:1009200014C00AE091F803C0BCF1480F05D14FF0A4
:10093000010C0CFA00FCC2F810C0401C0828D1D3EE
:100940001460B1F800C0BCF1FF0F34DD5468002022
:100950002EE000F1080C4FF0010808FA0CF3B1F892
:1009600000C00CEA03069E4221D183004FF00F0C19
:100970000CFA03F7BC4305FA03FC4CEA040491F8B3
:1009800003C0BCF1280F05D100F1080C08FA0CF8DF
:10099000C2F8148091F803C0BCF1480F07D100F1F0
:1009A000080C4FF0010808FA0CF8C2F81080401C3F
:1009B0000828CED35460BDE8F0814FF6FF71018066
:1009C000022181700421C1707047024600209368A3
:1009D0000B400BB1012000E0002070470146886801
:1009E00080B2704702460020D3680B400BB1012053
:1009F00000E0002070470146C86880B2704701617E
:100A00007047416170470AB1016100E04161704780
:100A1000C16070474FF480320A4382618161826114
:100A2000826982697047024600204D4B18684FF674
:100A30008073184040EA02100843494B1860704721
:100A40004849C8617047F0B50A46002300240021D8
:100A5000002500F00046B6F1004F02D1404EF1698A
:100A600001E03F4E7168C0F3034583B200F44016C5
:100A7000B6F5401F08D121F07061394E766826F036
:100A80007066374F7E6012E000F48016B6F5801F66
:100A900006D1032606FA05F4A14341F0706106E091
:100AA000460D360103FA06F6B14341F0706122B1FA
:100AB000460D360103FA06F6314300F00046B6F162
:100AC000004F02D1264EF16101E0254E7160F0BD6C
:100AD00030B500228B071C0F0F2303FA04F2204BC2
:100AE00008338C1053F8243093431D4C08348D1078
:100AF00044F8253023468C1053F824308C07240FFB
:100B000000FA04F42343164C08348D1044F82530C1
:100B100030BD1449DC310860704719B14FF0A5327F
:100B2000426302E04FF0FF3242637047026B0A43B8
:100B300002637047026B4FF480338B401A430263A9
:100B40007047000000080140000C01400010014007
:100B50000014014000180140001C01400020014029
:100B60000000014000002042ED48006840F0010014
:100B7000EB49086008464068EA490840E84948608F
:100B800008460068E8490840E549086008460068EA
:100B900020F4802008600846406820F4FE00486089
:100BA0004FF41F0088607047DD49096821F48031E7
:100BB000DB4A11601146096821F480211160B0F50B
:100BC000803F03D0B0F5802F0ED106E0D4490968EC
:100BD00041F48031D24A116007E0D149096841F4FB
:100BE000A021CF4A116000E000BF00BF704710B5E0
:100BF00001460022002300204A11012A02D1C84CDC
:100C0000236806E0022A02D1C54C236A01E0C44CE5
:100C1000636A01F01F02012494401C400CB10120C2
:100C200000E0002010BD38B5002000900024002511
:100C300000BF3120FFF7DBFF05460098401C009005
:100C40000098B0F5706F01D0002DF2D03120FFF781
:100C5000CEFF08B1012400E00024204638BD014643
:100C60000020AF4A106820F0F80040EAC100106090
:100C70007047AE490860704702460020A84B58688C
:100C800020F47C1042EA01031843A54B58607047DA
:100C9000A6490866704701460020A14A506820F026
:100CA00003000843506070479D48406800F00C0006
:100CB0007047014600209A4A506820F0F00008432F
:100CC0005060704701460020954A506820F4E0606B
:100CD00008435060704701460020914A506820F454
:100CE000605040EAC1005060704729B18C4A527A86
:100CF00002438B4B5A7204E0894A527A8243884BF2
:100D00005A72704786494968894A1140844A51603D
:100D10001146496801435160704701460020804AEE
:100D20005068844A104008437D4A50607047002153
:100D30007B4A203211707A4A82F82010012802D0B2
:100D400004280AD104E00121754A2032117005E01F
:100D50000521734A2032117000E000BF00BF7047C8
:100D60007549086070476E49096A01436C4A11620F
:100D70007047714944390860704770B500210022FE
:100D800000250023664E766806F00C0121B1042987
:100D900005D008292ED105E0684E06602DE0674E8B
:100DA00006602AE05E4E766806F470125C4E766845
:100DB00006F480355A4E7668C6F300762EB10124CB
:100DC000260146EA9246721C02E0022606EB924297
:100DD0001DB95B4E564306600BE0514E766806F433
:100DE00000361EB1564E5643066002E0534E56433F
:100DF000066002E0514E066000BF00BF484E7668B4
:100E000006F0F00109094F4E735C0668DE4046604B
:100E1000434E766806F4E061090A4A4E735C466800
:100E2000DE4086603E4E766806F46051C90A454E43
:100E3000735C4668DE40C660394E766806F4404111
:100E4000890B414E735CC668B6FBF3F6066170BD54
:100E500029B1334A52690243314B5A6104E0304AA6
:100E6000526982432E4B5A61704729B12C4A9269CC
:100E700002432B4B9A6104E0294A92698243284B32
:100E80009A61704729B1264AD2690243244BDA613C
:100E900004E0234AD2698243214BDA61704729B1C9
:100EA0001F4AD26802431E4BDA6004E01C4AD26833
:100EB00082431B4BDA60704729B1194A1269024319
:100EC000174B1A6104E0164A12698243144B1A61E7
:100ED000704719494039086070471449C864704721
:100EE000072802DC0E49C87102E007210C4AD171C3
:100EF000811F0B4A116370470948406A40F08070B7
:100F000007494862704701460020054A92680A4036
:100F10000AB1012000E00020704701498872704743
:100F2000001002400000FFF8FFFFF6FE0000424202
:100F3000FFFF3F7FFF3FFF9F8004424200127A0085
:100F400000093D00180000202800002010B50446CC
:100F5000FA48844208D10121C014FFF7A0FF002104
:100F6000E014FFF79CFF9DE0B4F1804F08D1012110
:100F70000846FFF7A1FF00210120FFF79DFF91E048
:100F8000EF48844208D101210220FFF795FF00219C
:100F90000220FFF791FF85E0EA48844208D1012151
:100FA0000420FFF789FF00210420FFF785FF79E087
:100FB000E548844208D101210820FFF77DFF002188
:100FC0000820FFF779FF6DE0E048844208D1012155
:100FD0001020FFF771FF00211020FFF76DFF61E087
:100FE000DB48844208D101212020FFF765FF002162
:100FF0002020FFF761FF55E0D648844208D1012147
:101000004014FFF74CFF00216014FFF748FF49E050
:10101000D148844209D10121C804FFF740FF0021D3
:101020004FF40020FFF73BFF3CE0CC48844209D15D
:1010300001210805FFF733FF00214FF48010FFF76F
:101040002EFF2FE0C648844209D101214805FFF751
:1010500026FF00214FF40010FFF721FF22E0C148D6
:10106000844208D101214020FFF726FF00214020C3
:10107000FFF722FF16E0BC48844208D101218020FE
:10108000FFF71AFF00218020FFF716FF0AE0B7489C
:10109000844207D101218015FFF70EFF0021A01522
:1010A000FFF70AFF10BD00220288A44B98420ED021
:1010B000A84B98420BD0B0F1804F08D0A04B98427B
:1010C00005D0A04B984202D09F4B984204D14FF6D6
:1010D0008F731A404B881A439C4B984207D09C4B05
:1010E000984204D04FF6FF431A40CB881A4302803F
:1010F0008B8883850B880385904B984202D0954B53
:10110000984201D10B7A038601238382704770B520
:10111000002400220023058C4FF6FE76354005841E
:10112000028C8388048B4FF68F752C40B51E2C40A3
:101130000D882C43751E2A400D892A434D882A4369
:101140007E4DA84202D0834DA84213D14FF6F775C9
:101150002A404D892A434FF6FB752A408D882A4341
:101160004FF6FF652B404FF6FF552B408D892B43E3
:10117000CD892B4383800483CD888586028470BD0E
:1011800070B5002400220023058C4FF6EF76354021
:101190000584028C8388048B48F6FF752C404FF63B
:1011A000FF452C400D884FF6FF7606EA05252C43B7
:1011B0004FF6DF752A400D8906EA05152A434D884A
:1011C00006EA05152A435D4DA84202D0614DA842AA
:1011D0001DD14FF67F752A404D894FF6FF7606EAFE
:1011E00005152A434FF6BF752A408D8806EA051576
:1011F0002A434FF6FF352B404FF2FF752B408D8968
:1012000006EA85052B43CD8906EA85052B438380B5
:101210000483CD880587028470BD70B50024002248
:101220000023058C4FF6FF6635400584028C8388C9
:10123000848B4FF68F752C404FF6FC752C400D8833
:101240002C434FF6FF552A400D894FF6FF7606EAEC
:1012500005252A434D8806EA05252A43374DA8422D
:1012600002D03C4DA8421DD14FF2FF752A404D8956
:101270004FF6FF7606EA05252A434FF6FF352A404A
:101280008D8806EA05252A434EF6FF752B404DF65C
:10129000FF752B408D8906EA05152B43CD8906EA9B
:1012A00005152B4383808483CD888587028470BD98
:1012B00070B5002200230024058C4EF6FF763540E1
:1012C0000584038C8488828B48F6FF752A404FF68C
:1012D000FF452A400D884FF6FF7606EA05252A438A
:1012E0004DF6FF752B400D8906EA05352B434D88D9
:1012F00006EA05352B43114DA84202D0154DA842F0
:1013000008D14BF6FF752C408D894FF6FF7606EA23
:1013100085152C4384808283CD88A0F840500384B7
:1013200070BD828B4FF2FF331A408283828B4FF65F
:10133000FF7303EA01231A4382837047002C0140A4
:101340000004004000080040000C00400010004075
:101350000014004000340140004C014000500140A6
:101360000054014000180040001C004000200040D4
:10137000F0B50C461546002200210026078C4EF6DB
:10138000FF7C07EA0C070784828B018C4FF6FF77FE
:1013900007EA043640F6FF473A404FF6FF7707EA80
:1013A00005273A434FF6FF7707EA03373A43F64FEC
:1013B000B8420ED0F54FB8420BD0B0F1804F08D0F4
:1013C000F34FB84205D0F34FB84202D0F24FB842C3
:1013D00006D14DF6FF77394046F48057394305E092
:1013E00047F6FF57394044F48057394382830184DC
:1013F000F0BD828B4FF6F3731A408283828B0A43CF
:1014000082837047F0B50C46154600220021002665
:10141000078C4FF6FF6C07EA0C070784828B018C60
:101420004FF6FF7707EA04264FF60C773A404FF65F
:10143000FF7707EA03172F433A43D34FB8420ED042
:10144000D24FB8420BD0B0F1804F08D0D04FB84245
:1014500005D0D04FB84202D0CF4FB84206D14FF698
:10146000FF57394046F48077394305E04FF2FF5784
:10147000394044F48077394382830184F0BD028B84
:101480004FF2FF331A400283028B4FF6FF7303EAD9
:1014900001231A4302837047F0B50C46154600221B
:1014A00000210026078C4FF6EF7C07EA0C07078423
:1014B000028B018C4FF6FF7707EA041640F6FF47D0
:1014C0003A404FF6FF7707EA03373A434FF6FF7784
:1014D00007EA05273A43AC4FB8420ED0AB4FB842AB
:1014E0000BD0B0F1804F08D0A94FB84205D0A94F1A
:1014F000B84202D0A84FB84206D14FF6DF77394044
:1015000046F01007394305E04FF65F77394044F065
:101510001007394302830184F0BD028B4FF6F37349
:101520001A400283028B0A4302837047F0B50C46CF
:10153000154600220021068C4FF6FE773E400684B9
:10154000028B018C4FF60C7632407E1C06EA0316A5
:101550002E4332438C4EB0420ED08C4EB0420BD054
:10156000B0F1804F08D08A4EB04205D0894EB042CB
:1015700002D0894EB04206D14FF6FD76314044F09C
:101580000106314305E04FF6F576314044F001069F
:10159000314302830184F0BD70B505460C467A489C
:1015A00085420ED0794885420BD0B5F1804F08D0E6
:1015B0007748854205D07748854202D076488542F3
:1015C00000D100E000BF208850B92389A28861883B
:1015D0002846FFF7ABFFE1882846FFF79EFF25E08E
:1015E000208804280AD12389A28861882846FFF729
:1015F00053FFE1882846FFF742FF17E020880828BC
:101600000AD12389A28861882846FFF7FBFEE1887A
:101610002846FFF7EEFE09E02389A2886188284664
:10162000FFF7A6FEE1882846FFF77BFE70BD2DE997
:10163000F04105460C4600260127608808B90226BD
:1016400000E00026A088012801D1022700E0012740
:101650002088A0B92389A28861882846FFF766FF01
:10166000E1882846FFF759FF23893A463146284644
:10167000FFF712FFE1882846FFF701FF13E02389F7
:10168000A28861882846FFF707FFE1882846FFF710
:10169000F6FE23893A4631462846FFF747FFE188A0
:1016A0002846FFF73AFFBDE8F0810A884B881A43C5
:1016B0008B881A43CB881A430B891A434B891A43E8
:1016C0008B891A43A0F8442070474FF6FF71818040
:1016D00000210180C180418001727047002101809A
:1016E00041808180C180018141818181C1817047B8
:1016F000002101804180012181800021C180018180
:1017000070470021018041808180C1800181418139
:101710008181704721B1028842F00102028004E019
:1017200002884FF6FE731A400280704731B1B0F85C
:10173000442042F40042A0F8442005E0B0F84420E0
:10174000C2F30E02A0F8442070471AB183890B43FC
:10175000838102E083898B43838170478182704754
:1017600041EA0203A0F8483070471AB183890B435D
:10177000838102E083898B438381704701894FF61F
:10178000F872114001817047002C01400034014083
:101790000004004000080040000C00400A46002100
:1017A00001894FF68F73194011430181704730B59D
:1017B00004460D4629462046FFF7F0FF208940F0F9
:1017C0000700208130BD2DE9F04104460D46164644
:1017D0001F46602D06D13B46012231462046FFF7C9
:1017E0005BFE05E03B46012231462046FFF79EFEA8
:1017F00029462046FFF7D2FF208940F007002081CC
:10180000BDE8F08130B50C4600210189C9B24FF620
:10181000FF7505EA0325154325432943018130BDA2
:101820002DE9F04105460E461746984600244346EA
:101830003A4631462846FFF7E5FF2C894FF6F87007
:10184000044044F007044FF68F70044044F07004E5
:101850002C81BDE8F081F0B504460D4616461F46C2
:101860003B46324629462046FFF7CCFF208940F40C
:1018700080402081F0BD0185828270470A460021A8
:1018800001884FF68F731940114301807047F0B5FE
:101890000C4615461E460021002200230189028BBA
:1018A000038C4FF6F877394021434FF6FC473A4016
:1018B00040F201173A434FF6DD773B404FF6FF7792
:1018C00007EA06172F433B43018102830384F0BDDF
:1018D0000A460021018B4FF68F7319401143018393
:1018E00070470A460021018B48F6FF7319404FF6F6
:1018F000FF7303EA02231943018370470A4600215C
:10190000818B4FF68F7319401143818370470A46CC
:101910000021818B48F6FF7319404FF6FF7303EAED
:10192000022319438183704721B1028842F080026B
:10193000028004E002884FF67F731A4002807047ED
:1019400021B1828842F00402828004E082884FF64E
:10195000FB731A408280704721B1828842F00802EE
:10196000828004E082884FF6F7731A4082807047C5
:1019700021B1828842F00102828004E082884FF621
:10198000FE731A40828070470A460021018B4FF691
:10199000F77319401143018370470A460021018BF8
:1019A0004FF2FF7319404FF6FF7303EA0223194306
:1019B000018370470A460021818B4FF6F773194067
:1019C0001143818370470A460021818B4FF2FF73D8
:1019D00019404FF6FF7303EA0223194381837047CE
:1019E0000A460021018B4FF6FB7319401143018316
:1019F00070470A460021018B4FF6FF3319404FF61E
:101A0000FF7303EA02231943018370470A4600214A
:101A1000818B4FF6FB7319401143818370470A464F
:101A20000021818B4FF6FF3319404FF6FF7303EA15
:101A300002231943818370470A460021018B4FF628
:101A40007F7319401143018370470A460021018BBF
:101A5000C1F30E014FF6FF7303EA0223194301831A
:101A600070470A460021818B4FF67F73194011435E
:101A7000818370470A460021818BC1F30E014FF626
:101A8000FF7303EA02231943818370470A4600214A
:101A9000018C4FF6FD7319401143018470470A46CB
:101AA0000021018C4FF6F7731940114301847047F0
:101AB0000A460021018C4FF6DF7319404FF6FF7381
:101AC00003EA02131943018470470A460021018C7E
:101AD0004FF67F7319404FF6FF7303EA0213194361
:101AE000018470470A460021018C4FF6FF531940CC
:101AF0004FF6FF7303EA02231943018470470A4635
:101B00000021018C4FF2FF7319404FF6FF7303EA77
:101B100002231943018470470A460021018C4DF6C7
:101B2000FF7319404FF6FF7303EA02331943018430
:101B3000704730B5002301248C40A3B2048C9C4331
:101B40000484048C02FA01F5ADB22C43048430BD48
:101B500030B5002304248C40A3B2048C9C4304843D
:101B6000048C02FA01F5ADB22C43048430BD70B58B
:101B70000346002000241846183001258D40ACB2E1
:101B80001D8CA5431D8409B1082909D100EB610012
:101B9000056825F0700505600568154305600EE0D1
:101BA0000D1FC5F34E052844056825F4E045056082
:101BB00005684FF6FF7606EA02263543056070BDDC
:101BC00021B1028842F00202028004E002884FF64E
:101BD000FD731A400280704721B1028842F004026E
:101BE000028004E002884FF6FB731A4002807047BF
:101BF00021B1828842F08002828004E082884FF620
:101C00007F731A408280704702884FF6F7731A403C
:101C1000028002880A430280704782884FF68F73E1
:101C20001A40828082880A438280704702894FF678
:101C3000F8731A40028102890A43028170470289BF
:101C40004FF67F731A40028102890A43028170476E
:101C5000818470478185704781867047018770470E
:101C600081877047A0F84010704702884FF6FF4305
:101C70001A40028002880A43028070470146888E1B
:101C800070470146088F70470146888F70470146AC
:101C9000B1F8400070470146888C70470146088DB6
:101CA000704702460020138A0B400BB1012000E070
:101CB00000207047CA430282704730B502460020B8
:101CC00000230024158A05EA0103958905EA010429
:101CD00013B10CB1012000E0002030BDCA430282E4
:101CE0007047000010B50446F748844209D101212D
:101CF0008803FFF7D4F800214FF48040FFF7CFF8B6
:101D000032E0F248844209D101214804FFF7D4F8B7
:101D100000214FF40030FFF7CFF825E0EC48844273
:101D200009D101218804FFF7C7F800214FF4802072
:101D3000FFF7C2F818E0E748844209D10121C8043E
:101D4000FFF7BAF800214FF40020FFF7B5F80BE0D9
:101D5000E148844208D101210805FFF7ADF80021D0
:101D60004FF48010FFF7A8F810BD2DE9F04786B0BA
:101D700005460E460024A24600BFA1460027B089B2
:101D800000B100BF2F462C8A4CF6FF700440F0884B
:101D900004432C82AC894EF6F3100440B08831899C
:101DA0000843718908430443AC81AC8A4FF6FF4075
:101DB0000440B0890443AC8201A8FEF7DEFFC248AC
:101DC000874204D164210498B0FBF1FA03E0642156
:101DD0000398B0FBF1FAA88900F4004058B16421DF
:101DE0003068B0FBF1F040000AEBCA0101EB0A11C8
:101DF000B1FBF0F80AE064213068B0FBF1F080003C
:101E00000AEBCA0101EB0A11B1FBF0F86420B8FB40
:101E1000F0F004012009642101FB1089A88900F475
:101E2000004040B1322000EBC900B0FBF1F000F0FF
:101E30000700044308E0322000EB09106421B0FBE6
:101E4000F1F000F00F0004432C8106B0BDE8F087EC
:101E50004FF41651016000218180C18001810C2165
:101E6000418100218181704710B502460020108A0F
:101E70004FF2FF0318400B884C8823438C88234380
:101E8000CC8823431843108210BD0021018041807B
:101E90008180C180704721B1828942F400528281E1
:101EA00004E082894DF6FF731A4082817047F0B5D5
:101EB0000346002400260025002040F66A17B94298
:101EC00000D100BF1846C1F3421401F01F060127DC
:101ED00007FA06F5012C01D10C3004E0022C01D1E7
:101EE000103000E014301AB107682F43076002E099
:101EF0000768AF430760F0BD1AB1838A0B43838242
:101F000002E0838A8B4383827047028A4FF6F07324
:101F10001A400282028A0A430282704782894FF283
:101F2000FF731A40828182890A438281704721B1FE
:101F3000828942F00202828104E082894FF6FD73B9
:101F40001A4082817047028A4FF6DF731A4002827C
:101F5000028A0A430282704721B1028A42F4804217
:101F6000028204E0028A4BF6FF731A400282704735
:101F7000C1F308028280704701468888C0F30800D8
:101F80007047818941F0010181817047028BD2B293
:101F90000283028B42EA012202837047028B02F421
:101FA0007F420283028B0A430283704721B1828AF7
:101FB00042F02002828204E0828A4FF6DF731A40E8
:101FC0008282704721B1828A42F01002828204E04C
:101FD000828A4FF6EF731A408282704721B1828A5B
:101FE00042F00802828204E0828A4FF6F7731A40B8
:101FF0008282704721B1828942F40042828103E0EB
:102000008289C2F30E028281704721B1828A42F432
:102010000062828204E0828A4FF2FF731A40828259
:102020007047828A4FF6FB731A408282828A0A4383
:102030008282704721B1828A42F00202828204E0E9
:10204000828A4FF6FD731A40828270470246002052
:10205000B1F5007F00D100BF13880B400BB1012008
:1020600000E00020704701F40072B2F5007F00D15B
:1020700000BFCA430280704770B5024600240023A7
:102080000025002040F66A16B14200D100BFC1F31E
:10209000421501F01F03012606FA03F3012D02D1B8
:1020A0009689334006E0022D02D1168A334001E0C2
:1020B000968A33400C12012606FA04F4168834403E
:1020C00063B15CB101200AE00038014000440040E7
:1020D00000480040004C004000500040002070BD0F
:1020E00010B50022002340F66A14A14200D100BFBF
:1020F0000A1201249440A3B2DC43048010BD000006
:1021000008B501210420FEF7B0FE10208DF8030071
:1021100003208DF802001020ADF8000069466348E6
:10212000FEF7C0FB4020ADF8000069465F48FEF7AF
:10213000B9FB8020ADF8000069465C48FEF7B2FBB1
:102140002020ADF8000069465848FEF7ABFB10218F
:102150005648FEF756FC40215448FEF752FC8021B9
:102160005248FEF74EFC20215048FEF74AFC08BDBD
:1021700010B5F0214D48FEF744FC10BD70B5044683
:102180000D46082C4DD2DFE804F0040D161F28314F
:102190003A43E0214548FEF734FC10214348FEF75E
:1021A0002EFC3FE0A0214148FEF72BFC50213F4888
:1021B000FEF725FC36E0B0213C48FEF722FC40212A
:1021C0003A48FEF71CFC2DE030213848FEF719FC98
:1021D000C0213648FEF713FC24E070213348FEF797
:1021E00010FC80213148FEF70AFC1BE050212F48EB
:1021F000FEF707FCA0212D48FEF701FC12E0D021DC
:102200002A48FEF7FEFB20212848FEF7F8FB09E0EC
:10221000C0212648FEF7F5FB30212448FEF7EFFBEE
:1022200000E000BF00BF2846FEF71BFAFFF7A0FF43
:1022300070BD2DE9F04104460D46164600271FE00B
:10224000012C0BD11A480078401C19490870084627
:10225000007807280DDD002008700AE01448007897
:1022600010B908201249087011480078401E104922
:10227000087031460E480078FFF780FF781C87B25F
:10228000AF42DDDBBDE8F08170B505460C46164671
:1022900004EB8400C0EB84204FF6FF7202EA800159
:1022A00032462846FFF7C5FF70BD00000008014018
:1022B000330000201FB501210220FEF7E3FD42F2AA
:1022C0000F70ADF8080041F61F40ADF80400002083
:1022D000ADF80A00ADF8060001A91548FEF7E3FEC7
:1022E000012211461248FFF730FA1D208DF8000038
:1022F00000208DF8010003208DF8020001208DF8E8
:1023000003006846FEF705FA01210948FFF702FAC3
:102310001FBD10B501210648FFF7CFFC38B10121E0
:102320000348FFF7DBFC034903A000F091FB10BD5D
:10233000000400401A33000825730A0010B586B067
:10234000044601218803FEF790FD01210420FEF7D9
:102350008CFD4FF40070ADF8140003208DF81600CA
:1023600018208DF8170005A92148FEF79BFA4FF4B5
:102370008060ADF8140004208DF8170005A91C48F2
:10238000FEF790FA01940020ADF80800ADF80A00BD
:10239000ADF80C00ADF810000C20ADF80E0001A94E
:1023A00014480068FFF7E1FC012112480068FFF7BC
:1023B00072FD06B010BD10B5044600BF40210D48A7
:1023C0000068FFF743FE0028F8D0E1B20948006832
:1023D000FFF7CEFD204610BD70B504460D460A2C11
:1023E00002D10D20FFF7E7FF2046FFF7E4FF70BDA5
:1023F000000801403400002030B480EA010202F0FD
:10240000004530F0004221F0004013D090B1C30DE0
:10241000D40DC2F31601C0F31600E41A41F4000112
:1024200040F400027D34914201D3641C00E0490075
:10243000002C02DA30BC002070474FF4000000236B
:10244000914201D3891A034340084FEA4101F7D171
:1024500051B1914202D14FF0004105E002D24FF05C
:10246000010101E06FF0010103EBC450284430BCCE
:1024700000F05FB896230022114600F063B800F028
:10248000004230F000400AD0C10D01F56071C0F388
:10249000160042EA0151C20840071143704700206C
:1024A0000146704730B50B4601460020202201242A
:1024B00009E021FA02F59D4205D303FA02F5491B12
:1024C00004FA02F52844151EA2F10102F1DC30BD28
:1024D0002DE9F05F0546002092469B468846064659
:1024E000814640241BE0284641464746224600F0EC
:1024F00030FA53465A46C01A914110D31146184635
:10250000224600F017FA2D1A67EB01084F462246C3
:102510000120002100F00EFA17EB00094E41201EA9
:10252000A4F10104DFDC484631462A464346BDE8B3
:10253000F09F0029A8BF7047401C490008BF20F049
:102540000100704710B4B0FA80FC00FA0CF050EAB9
:10255000010404BF10BC704749B1CCF1200421FA3A
:1025600004F411FA0CF118BF012121430843A3EB35
:102570000C01CB1D4FEA00614FEA102042BF002042
:1025800010BC704700EBC35010440029A4BF10BC1E
:102590007047401C490008BF20F0010010BC704784
:1025A0002DE9FE4F804681EA0300C00F0C460090E3
:1025B00021F0004123F00045B8EB0200A94105D20B
:1025C0004046214690461C460B46024623F00040FA
:1025D000104347D0270DC7F30A00C3F30A510290F6
:1025E000401A019040286BDAC3F3130040F4801BBB
:1025F0000098924620B10023D2EB030A63EB0B0B49
:1026000001985946C0F14002504600F093F9064641
:102610000D4650465946019A00F0ABF910EB080000
:102620006141002487EA115284EAE7731A4340D0DB
:10263000009A62B3019A012A4FEA075215DC001B87
:1026400061EB02014FF0004202EA0752CDE900427D
:10265000001C41F5801132462B4600F0ABF903B067
:10266000BDE8F08F40462146F9E7001B61EB02010F
:10267000001C41F5801300185B412018A2F50017DB
:1026800047EB030140EAD570B6196D4111E06D08C2
:102690004FEA360645EAC0754FEA0752001B61EB68
:1026A0000201001C41F5801149084FEA3000001971
:1026B000514132462B4603B0BDE8F04F00F06BB9F4
:1026C0000098012240000023D0EB020263EBE0738C
:1026D000009821464FEAE074B8EB000061EB04017A
:1026E000E9E783F000435BE781F0004158E72DE91B
:1026F000FE4F81EA030404F0004421F000410094FD
:102700004FF0000B23F0004350EA01045ED052EA80
:1027100003045BD0C3F30A54C1F30A552C44A4F25A
:10272000F3340194A0FB0254C1F3130141F480116E
:10273000C3F3130343F4801301FB024400FB034E75
:10274000840A970A44EA815447EA8357A4FB07683E
:1027500002958D0A05FB07854FEA932C04FB0C5468
:102760002705029D4FEA065847EA1637B5EB0805DC
:102770006EEB070C870E920E47EA811742EA83122E
:10278000A7FB0201B6EB0B0164EB00042B0D43EA3F
:102790000C335E1844EB1C50DA465146E7FB02014D
:1027A000C5F313044FEA0B3343EA14534FEA0432E0
:1027B000019C43EA0603A4F10C040294009CCDE9B9
:1027C00000B400F0F7F803B0BDE8F08F0020014638
:1027D000F9E72DE9F04D81EA030404F0004B21F004
:1027E000004514464FF0000A23F0004150EA05026C
:1027F00020D054EA01021DD0C5F30A570246C5F3A2
:102800001303C1F31300C1F30A5640F4801543F4D7
:102810008013A7EB0608101BD64608F2FD3873EBB1
:10282000050002D308F1010801E092185B41B8F1FC
:10283000000F03DA00200146BDE8F08D00204FF4C0
:102840008011064684460EE0171B73EB050705D37F
:10285000121B63EB050306434CEA010C49084FEADF
:10286000300092185B4150EA0107EDD152EA0300B3
:1028700012D082EA040083EA0501084305D0101B48
:10288000AB4106D20122002306E000224FF00043B4
:1028900002E06FF0010253101AEB06004CEB0851F6
:1028A00010EB0A0041EB0B01BDE8F04D00F073B8EE
:1028B000C1F30A52C1F3130140F2FF3341F4801116
:1028C0009A4202DA00200146704740F233439A42AE
:1028D000A2F2334202DC524200F03BB800F02AB8C8
:1028E00030B5041E71F1000404DB4FF00044404297
:1028F00064EB0101141E73F1000405DB1C464FF06C
:102900000043524263EB0403994208BF904230BD3A
:10291000064C074D06E0E06840F0010394E807002C
:1029200098471034AC42F6D3FDF77EFC84330008A0
:10293000A4330008202A04DB203A00FA02F1002028
:1029400070479140C2F1200320FA03F319439040ED
:102950007047202A04DB203A21FA02F00021704758
:1029600021FA02F3D040C2F12002914008431946F7
:102970007047202A06DBCB17203A41FA02F043EADF
:10298000E07306E041FA02F3D040C2F12002914028
:1029900008431946704710B5141E73F1000408DA95
:1029A000401C41F1000192185B411A4301D120F013
:1029B000010010BD2DE9F04D92469B4611B1B1FAD0
:1029C00081F202E0B0FA80F220329046FFF7B2FFC7
:1029D00004460F4640EA0A0041EA0B0153465A46B4
:1029E000084313D0114653EA010019D0C8F1400240
:1029F0005046FFF7AEFF05460E4650465946424642
:102A0000FFF798FF084305D0012004E0204639462F
:102A1000BDE8F08D0020054346EAE0762C433743BD
:102A20000A986305E40AA0EB08000022FD0A44EAC4
:102A300047540A3002D500200146E9E70105101984
:102A40006941DDE9084500196941BDE8F04DA2E79B
:102A50000FB4054B10B503A9044A029800F0DAF848
:102A600010BC5DF814FB0000D923000838000020DA
:102A700002E008C8121F08C1002AFAD17047704747
:102A8000002001E001C1121F002AFBD170470000A5
:102A90002DE9FF5F82B00021DDE90430020DDDF891
:102AA00040B0034318D044F61050A2F2FF32424324
:102AB0001514119801281FD0A5EB0B00401C5FEAEC
:102AC000000A4FF000064E4FDFF83891B0465046EE
:102AD00015D5CAF1000413E0119801244AA3012876
:102AE00001D16FEA0B010298119AC0E90031C0E9E7
:102AF000024206B0BDE8F09FCBF10000DFE70446DC
:102B00000021404A491842EB0450CDE9001012E080
:102B1000E00707D032463B4640464946FFF7E7FD0F
:102B20008046894632463B4610461946FFF7DFFD90
:102B300006460F466410002CEAD1DDE90401DDE908
:102B40000023BAF1000F06DAFFF7D1FD42464B46EB
:102B5000FFF7CDFD05E0FFF73CFE42464B46FFF791
:102B600038FE04460E460022284BFFF7B9FE03D874
:102B70004FF0FF30014607E00022254B204631464A
:102B8000FFF70EFDFFF794FE102409E0002C0ADB8E
:102B90000A220023FFF79CFC039B30321A55641E67
:102BA00050EA0102F2D1641C039AC4F111031444E7
:102BB000119A012A03D0012208430DD10AE00843EB
:102BC00004D000204FF0110B119072E7A3EB0B051E
:102BD0006D1E0DE05B4504DD4FF0000205F10105BF
:102BE00004E003DA4FF00002A5F10105002AECD061
:102BF00002981199C0E90231C0E9004579E7000067
:102C0000000014400000F03F300000000000F043DE
:102C10000000E03F2DE9FF4F95B09A4688460646F2
:102C20000025EEE1252877D100242746F94A012125
:102C3000039400E0044316F8013F203B01FA03F03F
:102C40001042F7D130782A2811D06FF02F03307856
:102C5000A0F13002092A16D8039A44F0020402EBCC
:102C6000820203EB42021044761C0390EFE758F80F
:102C7000042B0392002A03DA504244F400540390D8
:102C800044F00204761C30782E2816D116F8010F75
:102C900044F004042A280DD06FF02F023078A0F100
:102CA0003003092B09D807EB870302EB4303C7184E
:102CB000761CF3E758F8047B761C30786C280FD02C
:102CC00006DC4C2817D068280DD06A2814D104E0FF
:102CD000742810D07A280FD10DE044F400140AE0D3
:102CE00044F4801401E044F440147278824202D12A
:102CF00004F58014761C761C307866280BD013DC23
:102D0000582877D009DC002875D04528F6D0462809
:102D1000F4D047281AD193E118E0632835D064280D
:102D200079D0652812D18BE1702873D008DC672830
:102D3000F1D069286FD06E280DD06F2806D1ACE095
:102D400073282CD0752874D0782853D05246179900
:102D500090476D1C54E1C4F30250022809D00328A7
:102D60000DD0D8F8001004280DD00D6008F104082B
:102D700046E1D8F80010EA17C1E90052F6E7D8F8A2
:102D800000100D80F2E70D70F0E718F8041B8DF8C5
:102D9000001000208DF80100EB46012003E058F8F8
:102DA00004BB4FF0FF3061074FF0000102D40DE08B
:102DB00009F101018946B9420FDA8145F8DB1BF8B8
:102DC00009100029F4D108E009F101018946814286
:102DD000FADB1BF809100029F6D103985346A0EB43
:102DE000090721463846179A00F080FA284400EB7C
:102DF000090507E044E008E10DE01BF8010B52462D
:102E000017999047B9F10109F7D253462146384640
:102E1000179AF2E039E00A21C4F302524FF0000B96
:102E20000091022A06D058F8040BC117032A09D0D2
:102E30000AE023E008F1070020F00702F2E80201AF
:102E4000904605E000B2C117042A01D140B2C11773
:102E5000002906DA0A460021404261EB02012D22D8
:102E600002E0220504D52B228DF80420012203E084
:102E7000E20701D02022F7E7914657E00A2100E05F
:102E800010214FF0000B00910BE010214FF0000BD0
:102E900044F004040827009103E008204FF0000BE1
:102EA0000090C4F30252022A05D058F8040B002106
:102EB000032A08D008E008F1070020F00702F2E832
:102EC0000201904603E080B2042A00D1C0B24FF064
:102ED000000922072AD53278702A07D0DDF800C011
:102EE0008CF0100C5CEA0B0C05D00EE040228DF843
:102EF0000420012208E050EA010306D030238DF8B7
:102F000004308DF8052002229146009B83F00803CF
:102F100053EA0B030AD150EA010201D1620705D539
:102F200030228DF804204FF001097F1E3278582A94
:102F300004D039A20C920CAA02920BE03BA2F9E752
:102F40005B46009AFFF7C4FA0C9B9B5C029A521EE8
:102F50000292137050EA0102F2D1029804A9081AF1
:102F600000F1200B600702D524F4803400E0012733
:102F70005F4502DDA7EB0B0000E0002000EB0B013A
:102F8000009003984944401A0390E00306D4534646
:102F90002146179A039800F0A9F90544002706E096
:102FA00001A85246C05D179990476D1C7F1C4F4584
:102FB000F6DBE0030CD553462146179A039800F040
:102FC00095F9054404E030205246179990476D1C4E
:102FD0000099481E00900029F5DC08E0029802994B
:102FE00052460078491C0291179990476D1CBBF11D
:102FF0000001ABF1010BF1DC5BE100F065F9054488
:10300000761C307800287FF40DAE19B02846BDE854
:10301000F08F000009280100303132333435363763
:103020003839616263646566000000003031323314
:1030300034353637383941424344454600000000B4
:10304000600700D4062708F1070020F00700F0E829
:103050000223804603F0004C5FEA0C0001D097A0E9
:1030600009E0200501D596A005E0E00701D095A074
:1030700001E0AFF24C001390307823F00043652854
:103080000CD006DC452809D046281DD047287FD122
:103090003BE0662818D067287AD136E00021112F4E
:1030A00001DB112000E0781CCDE9000104A90CA887
:1030B000FFF7EEFCDDE90D010C9A4FF0000B07F174
:1030C0000109109200914EE04FF000400097CDE9C9
:1030D000011004A90CA8FFF7DBFCDDE90D020C9B35
:1030E0000F994FF0000B91461093009211B9791C83
:1030F00000EB0109B7EB090003D4C0F1FF3B07F176
:103100000109A9EB0700019042E0012F00DA012735
:103110000021112F01DD112000E03846CDE900012A
:1031200004A90CA8FFF7B4FCDDE90D010C9A00918D
:103130004FF0000BB946109221070FD4009A4A4570
:1031400003DA914601E0A9F10109B9F1010F05DDAA
:10315000109AA9F10101515C3029F4D0B84202DA89
:1031600010F1040F03DA0121CDE9011010E000286D
:1031700003DC8344A9EB000102E0411C494500DD6A
:103180008946A0EB0B00401C01904FF000400290DC
:10319000200705D40198484502DB4FF0FF3001902D
:1031A00000208DF84B0002980DF14B07B0F1004F55
:1031B00025D002200C902B200D90029800280CDACC
:1031C000404202902D200D9007E00A210298FFF75F
:1031D00069F93031029007F8011D0C99481E0C90D6
:1031E0000029F2DC02980028EFD1791E0D980870B2
:1031F000307800F0200040F0450007F8020D11A8DB
:10320000C01BC01D02901398007800B1012000EB94
:103210000901019801EBE071029801440398401AFA
:10322000401E0390E00306D453462146179A0398A4
:1032300000F05CF805441398007818B152461799CD
:1032400090476D1CE00323D553462146179A0398F7
:1032500000F04CF805441BE0BBF1000F07DB0098C1
:10326000584504DD1098179910F80B0001E01799E4
:1032700030205246904701980BF1010B401E05F19A
:103280000105019004D12E205246179990476D1CDC
:10329000B9F10001A9F10109DEDC05E017F8010B25
:1032A0005246179990476D1C0299481E02900029BA
:1032B000F4DC53462146179A03989EE62D00000041
:1032C0002B000000200000002DE9F04104460025FD
:1032D0001E461746880404D405E039462020B0472E
:1032E0006D1C641EF9D52846BDE8F0812DE9F0413A
:1032F000044600251E469046C80301D5302700E04D
:103300002027880404D505E041463846B0476D1CA7
:10331000641EF9D52846BDE8F08154494D335F4914
:10332000525148616E646C657200000053595343FA
:103330004C4B3A2025332E31664D687A2C20484379
:103340004C4B3A2025332E31664D687A2C20504361
:103350004C4B313A2025332E31664D687A2C205063
:10336000434C4B323A2025332E31664D687A2C205F
:10337000414443434C4B3A2025332E31664D687A05
:103380000A000000A4330008000000203C000000F8
:10339000702A0008E03300083C00002014100000F0
:1033A000802A000800A24A0400000000000000007B
:1033B00001020304060708090000000000000000E5
:1033C00001020304010203040607080902040608B7
:1033D0000000000000000000003801400000000074
:0400000508000221CC
:00000001FF
